:100000000C9462000C948A000C948A000C948A0070
:100010000C948A000C948A000C948A000C948A0038
:100020000C948A000C948A000C948A000C948A0028
:100030000C948A000C948A000C948A000C948A0018
:100040000C94E0030C948A000C9450040C942A0441
:100050000C948A000C948A000C948A000C948A00F8
:100060000C948A000C948A000000000024002700F1
:100070002A0000000000250028002B0000000008D6
:10008000000201000003040700000000000000005F
:1000900000000000230026002900040404040404D6
:1000A0000404020202020202030303030303010227
:1000B00004081020408001020408102001020408F6
:1000C0001020400611241FBECFEFD8E0DEBFCDBF09
:1000D00011E0A0E0B1E0EEEBF1E102C005900D927D
:1000E000A037B107D9F722E0A0E7B1E001C01D9227
:1000F000AD31B207E1F710E0C2E6D0E004C02197CD
:10010000FE010E94D708C136D107C9F70E94C70473
:100110000C94DD080C94000090E0FC01E458FF4FC3
:100120002491FC01E255FF4F3491FC01E656FF4F4C
:10013000E491EE23C9F0222339F0233001F1A8F431
:10014000213019F1223029F1F0E0EE0FFF1FEE58B7
:10015000FF4FA591B4918FB7F894EC91611126C02F
:1001600030953E233C938FBF08952730A9F0283067
:10017000C9F0243049F7809180008F7D03C08091C1
:1001800080008F7780938000DFCF84B58F7784BD28
:10019000DBCF84B58F7DFBCF8091B0008F778093CC
:1001A000B000D2CF8091B0008F7DF9CF3E2BDACF57
:1001B000EF92FF920F931F93CF93DF9395E0E92E79
:1001C00091E0F92ED0E0C0E0082F10E0B8010C2E2D
:1001D00002C0759567950A94E2F76170F701819105
:1001E0007F010E948C002196C430D10579F781E00F
:1001F000DF91CF911F910F91FF90EF900895CF93D2
:10020000DF9390E0FC01E255FF4F249186569F4F0B
:10021000FC0184918823D1F090E0880F991FFC01A4
:10022000E859FF4FA591B491FC01EE58FF4FC591DD
:10023000D49161110EC09FB7F8948C91E22FE09594
:100240008E238C932881E223E8839FBFDF91CF9197
:1002500008958FB7F894EC91E22BEC938FBFF6CF13
:10026000AF92BF92CF92DF92EF92FF920F931F93C4
:10027000CF93DF936C017B018B01040F151FEB0102
:100280005E01AE18BF08C017D10759F06991D601B9
:10029000ED91FC910190F081E02DC6010995892B2B
:1002A00079F7C501DF91CF911F910F91FF90EF90EA
:1002B000DF90CF90BF90AF900895FC01538D448D97
:1002C000252F30E0842F90E0821B930B541710F001
:1002D000CF96089501970895FC01918D828D98170E
:1002E00061F0A28DAE0FBF2FB11D5D968C91928DE6
:1002F0009F5F9F73928F90E008958FEF9FEF089517
:10030000FC01918D828D981731F0828DE80FF11DDF
:10031000858D90E008958FEF9FEF0895FC01918DFA
:10032000228D892F90E0805C9F4F821B91098F73F3
:100330009927089580E891E00E948E0121E0892BA1
:1003400009F420E0822F089580E090E0892B29F0C5
:100350000E949A0181110C9400000895FC01A48D63
:10036000A80FB92FB11DA35ABF4F2C91848D90E0D7
:1003700001968F739927848FA689B7892C93A089BA
:10038000B1898C91837080648C93938D848D981344
:1003900006C00288F389E02D80818F7D80830895D7
:1003A000EF92FF920F931F93CF93DF93EC0181E0C5
:1003B000888F9B8D8C8D98131AC0E889F98980816C
:1003C00085FF15C09FB7F894EE89FF896083E8899F
:1003D000F98980818370806480839FBF81E090E091
:1003E000DF91CF911F910F91FF90EF900895F62E1E
:1003F0000B8D10E00F5F1F4F0F731127E02E8C8DB8
:100400008E110CC00FB607FCFACFE889F9898081FC
:1004100085FFF5CFCE010E94AE01F1CFEB8DEC0F41
:10042000FD2FF11DE35AFF4FF0829FB7F8940B8F19
:10043000EA89FB8980818062CFCFCF93DF93EC0183
:10044000888D8823B9F0AA89BB89E889F9898C91BC
:1004500085FD03C0808186FD0DC00FB607FCF7CF78
:100460008C9185FFF2CF808185FFEDCFCE010E9478
:10047000AE01E9CFDF91CF910895CF93DF93EC01E7
:1004800061E088810E94FF0060E089810E94FF0096
:1004900060E088810E948C0083E290E00197F1F790
:1004A00081E0DF91CF910895FC0101900020E9F7F0
:1004B0003197AF01481B590BBC0180E891E00C94C7
:1004C00030018F929F92AF92BF920F931F93CF9361
:1004D000DF93CDB7DEB7A1970FB6F894DEBF0FBE9E
:1004E000CDBF19A2423008F44AE08E010F5D1F4FC4
:1004F000842E912CB12CA12CA50194010E94B50849
:10050000E62FB901CA01EA30F4F4E05DD801EE93B8
:100510008D01232B242B252B79F790E080E0109779
:1005200019F0CD010E945402A1960FB6F894DEBFD7
:100530000FBECDBFDF91CF911F910F91BF90AF90B4
:100540009F908F900895E95CE1CF4F925F926F92F8
:100550007F928F929F92AF92BF92CF92DF92EF9253
:10056000FF920F931F93CF936B017C01742EAC010C
:100570009B010E94A408882399F08BE191E0CF9120
:100580001F910F91FF90EF90DF90CF90BF90AF90B1
:100590009F908F907F906F905F904F900C9454023B
:1005A00046015701E894B7F82FEF3FEF4FE75FE7B9
:1005B000C501B4010E94A40881110DC02FEF3FEFC7
:1005C0004FE75FE7C501B4010E94DA0618161CF474
:1005D0008FE191E0D4CF2FEF3FEF4FE75FE4C7010A
:1005E000B6010E94320818161CF483E291E0C7CFCE
:1005F0002FEF3FEF4FE75FECC701B6010E94DA062D
:1006000087FDF3CF20E030E0A901C701B6010E94C9
:10061000DA0610E000E087FF0AC06DE280E891E0B2
:100620000E94D0018C01F7FAF094F7F8F094C0E042
:1006300060E070E080E09FE37C1641F020E030E075
:1006400040E251E40E94DF06CF5FF6CFA70196019A
:100650000E946E062B013C010E9451074B015C0178
:100660004AE00E9461027C01E00EF11ECC23C1F140
:10067000C501B4010E9480079B01AC01C301B20116
:100680000E946D064B015C016EE280E891E00E94E1
:10069000D001E80EF91EC15018F120E030E040E230
:1006A00051E4C501B4010E9437082B013C010E94AE
:1006B00051074B01B12CA12C4AE0C501B4010E94A5
:1006C0006102E80EF91EC501B4010E9480079B017A
:1006D000AC01C301B2010E946D064B015C01DBCF8E
:1006E000C701CF911F910F91FF90EF90DF90CF90B6
:1006F000BF90AF909F908F907F906F905F904F9042
:1007000008950F931F93CF93DF93EC0161E08881ED
:100710000E948C0083E290E00197F1F760E088810D
:100720000E948C00898190E0FC01E255FF4F6491AA
:10073000FC01E656FF4FE491F0E0EE0FFF1FE0579B
:10074000FF4F8591949100E412E42FE030E0462FB2
:100750000E948204611571058105910529F06F5F82
:100760007F4F8F4F9F4F9F700E94800720E030E0A7
:1007700040E05FE30E94370825E035EC4FE05DE3A1
:100780000E94370860937C0170937D0180937E0105
:1007900090937F0181E0DF91CF911F910F91089598
:1007A000CF93C82F60E00E948C008FE39FE10197F8
:1007B000F1F700C0000061E08C2FCF910C948C0009
:1007C0001F920F920FB60F9211242F933F938F9386
:1007D0009F93AF93BF938091780190917901A091FD
:1007E0007A01B0917B013091770123E0230F2D37FF
:1007F00058F50196A11DB11D2093770180937801D2
:1008000090937901A0937A01B0937B018091730159
:1008100090917401A0917501B09176010196A11D8E
:10082000B11D8093730190937401A0937501B093EF
:100830007601BF91AF919F918F913F912F910F9032
:100840000FBE0F901F90189526E8230F0296A11D4A
:10085000B11DD2CF1F920F920FB60F9211242F937A
:100860003F934F935F936F937F938F939F93AF9338
:10087000BF93EF93FF9380E891E00E94AE01FF9158
:10088000EF91BF91AF919F918F917F916F915F9108
:100890004F913F912F910F900FBE0F901F90189581
:1008A0001F920F920FB60F9211242F938F939F9345
:1008B000EF93FF93E0919001F09191018081E0919D
:1008C0009601F091970182FD1BC090818091990162
:1008D0008F5F8F7320919A01821741F0E091990107
:1008E000F0E0E058FE4F958F80939901FF91EF91D2
:1008F0009F918F912F910F900FBE0F901F90189581
:100900008081F4CFCF92DF92EF92FF920F931F93EB
:10091000E82FF92F05C0015011092109310961F1B2
:10092000908196239417B9F305C00150110921094C
:10093000310911F1908196239413F7CFC12CD12C5A
:10094000E12CF12C0AC08FEFC81AD80AE80AF80A7D
:100950000C151D052E053F0579F08081862384172F
:1009600091F36C2D7D2D8E2D9F2D1F910F91FF905A
:10097000EF90DF90CF90089560E070E080E090E02D
:100980001F910F91FF90EF90DF90CF900895789492
:1009900084B5826084BD84B5816084BD85B5826084
:1009A00085BD85B5816085BD80916E008160809335
:1009B0006E0010928100809181008260809381009E
:1009C00080918100816080938100809180008160AE
:1009D000809380008091B10084608093B100809109
:1009E000B00081608093B00080917A008460809331
:1009F0007A0080917A00826080937A0080917A00F8
:100A0000816080937A0080917A00806880937A0078
:100A10001092C10080E091E00E943D0282E091E0EE
:100A20000E943D0261E086E00E94FF0061E087E0F5
:100A30000E94FF0061E088E00E94FF0061E089E021
:100A40000E94FF00C5E0D1E061E089910E94FF00B3
:100A5000FE01319760E080810E948C0081E0C93006
:100A6000D80791F761E086E00E948C0061E087E0A2
:100A70000E948C0061E088E00E948C0061E089E0C7
:100A80000E948C00E0919001F091910182E08083BE
:100A9000E0918C01F0918D011082E0918E01F09136
:100AA0008F018FEC808310929801E0919401F09176
:100AB000950186E08083E0919201F091930180811D
:100AC00080618083E0919201F09193018081886040
:100AD0008083E0919201F09193018081806880830E
:100AE000E0919201F091930180818F7D8083CAE033
:100AF00000E010E0D1E0809104016C2F0E94A90871
:100B0000892F0E94D80087E00E94D00380910401C1
:100B10006C2F0E94A9080E94D80086E00E94D00392
:100B2000809172016C2F0E94A908892F0E94D80021
:100B300089E00E94D003809172016C2F0E94A90865
:100B40000E94D80088E00E94D003809171018D3707
:100B500051F51092710180917101811118C080913D
:100B6000700181110AC080910401811120C0D093CD
:100B700070018091710181110AC0809170018823F8
:100B800031F080917201811146C0109270010115FF
:100B9000110509F4B0CF0E949A01882309F4ABCF64
:100BA0000E940000A8CF8F5F80937101D4CF815045
:100BB00080930401809172018F5F8093720182E0C3
:100BC00091E00E94810320E030E040E252E4609135
:100BD0007C0170917D0180917E0190917F010E9446
:100BE000DA06181634F287E291E00E94540260910E
:100BF0007C0170917D0180917E0190917F0142E0A6
:100C00000E94A50283E391E00E9454028FE491E0E8
:100C10000E945402AECF81508093720180910401F2
:100C20008F5F8093040180E091E00E94810320E0C7
:100C300030E040E252E460917C0170917D0180914E
:100C40007E0190917F010E94DA0618160CF49FCF66
:100C500087E291E00E94540260917C0170917D01D5
:100C600080917E0190917F0142E00E94A50282E581
:100C700091E00E9454028FE491E00E94540287CFD9
:100C8000E0E8F1E01382128288EE93E0A0E0B0E0A9
:100C900084839583A683B7838DE091E091838083DD
:100CA00085EC90E09587848784EC90E09787868731
:100CB00080EC90E0918B808B81EC90E0938B828B29
:100CC00082EC90E0958B848B86EC90E0978B868B02
:100CD000118E128E138E148E08955058BB27AA279A
:100CE0000E9485060C94F8070E94EA0738F00E94DB
:100CF000F10720F039F49F3F19F426F40C94E7072C
:100D00000EF4E095E7FB0C94E107E92F0E94090837
:100D100058F3BA17620773078407950720F079F430
:100D2000A6F50C942B080EF4E0950B2EBA2FA02DEF
:100D30000B01B90190010C01CA01A0011124FF2788
:100D4000591B99F0593F50F4503E68F11A16F04083
:100D5000A22F232F342F4427585FF3CF4695379582
:100D60002795A795F0405395C9F77EF41F16BA0B47
:100D7000620B730B840BBAF09150A1F0FF0FBB1FF5
:100D8000661F771F881FC2F70EC0BA0F621F731F3E
:100D9000841F48F4879577956795B795F7959E3F9B
:100DA00008F0B0CF9395880F08F09927EE0F97952C
:100DB000879508950E94BD0708F481E008950E9478
:100DC000F3060C94F8070E94F10758F00E94EA0716
:100DD00040F029F45F3F29F00C94E10751110C9485
:100DE0002C080C94E7070E94090868F39923B1F3D3
:100DF000552391F3951B550BBB27AA276217730741
:100E0000840738F09F5F5F4F220F331F441FAA1FD4
:100E1000A9F335D00E2E3AF0E0E832D09150504090
:100E2000E695001CCAF72BD0FE2F29D0660F771F3E
:100E3000881FBB1F261737074807AB07B0E809F024
:100E4000BB0B802DBF01FF2793585F4F3AF09E3FA9
:100E5000510578F00C94E1070C942C085F3FE4F303
:100E6000983ED4F3869577956795B795F7959F5FEC
:100E7000C9F7880F911D9695879597F90895E1E038
:100E8000660F771F881FBB1F621773078407BA0797
:100E900020F0621B730B840BBA0BEE1F88F7E095F2
:100EA00008950E94110888F09F5798F0B92F99274C
:100EB000B751B0F0E1F0660F771F881F991F1AF045
:100EC000BA95C9F714C0B13091F00E942B08B1E077
:100ED00008950C942B08672F782F8827B85F39F076
:100EE000B93FCCF3869577956795B395D9F73EF4DE
:100EF00090958095709561957F4F8F4F9F4F089586
:100F0000E89409C097FB3EF49095809570956195A3
:100F10007F4F8F4F9F4F9923A9F0F92F96E9BB2759
:100F20009395F695879577956795B795F111F8CFD5
:100F3000FAF4BB0F11F460FF1BC06F5F7F4F8F4F40
:100F40009F4F16C0882311F096E911C0772321F036
:100F50009EE8872F762F05C0662371F096E8862FCE
:100F600070E060E02AF09A95660F771F881FDAF725
:100F7000880F9695879597F90895990F0008550F52
:100F8000AA0BE0E8FEEF16161706E807F907C0F00F
:100F900012161306E407F50798F0621B730B840B17
:100FA000950B39F40A2661F0232B242B252B21F4F1
:100FB00008950A2609F4A140A6958FEF811D811D91
:100FC000089597F99F6780E870E060E008959FEFCB
:100FD00080EC089500240A941616170618060906D0
:100FE000089500240A94121613061406050608959F
:100FF000092E0394000C11F4882352F0BB0F40F427
:10100000BF2B11F460FF04C06F5F7F4F8F4F9F4F66
:10101000089557FD9058440F551F59F05F3F71F0E8
:101020004795880F97FB991F61F09F3F79F087954F
:101030000895121613061406551FF2CF4695F1DFD8
:1010400008C0161617061806991FF1CF8695710568
:10105000610508940895E894BB2766277727CB019C
:1010600097F908950E94BD0708F48FEF08950E9434
:101070004A080C94F8070E94EA0738F00E94F1072A
:1010800020F0952311F00C94E1070C94E70711244C
:101090000C942C080E94090870F3959FC1F3950FDA
:1010A00050E0551F629FF001729FBB27F00DB11DEC
:1010B000639FAA27F00DB11DAA1F649F6627B00D7C
:1010C000A11D661F829F2227B00DA11D621F739F65
:1010D000B00DA11D621F839FA00D611D221F749F73
:1010E0003327A00D611D231F849F600D211D822FBA
:1010F000762F6A2F11249F5750409AF0F1F08823E1
:101100004AF0EE0FFF1FBB1F661F771F881F91500D
:101110005040A9F79E3F510580F00C94E1070C94D4
:101120002C085F3FE4F3983ED4F386957795679556
:10113000B795F795E7959F5FC1F7FE2B880F911D37
:101140009695879597F908950E94BD07880B990B8E
:101150000895991B79E004C0991F961708F0961B13
:10116000881F7A95C9F780950895A1E21A2EAA1BC7
:10117000BB1BFD010DC0AA1FBB1FEE1FFF1FA21747
:10118000B307E407F50720F0A21BB30BE40BF50B44
:10119000661F771F881F991F1A9469F760957095CD
:1011A000809590959B01AC01BD01CF010895EE0F94
:0E11B000FF1F0590F491E02D0994F894FFCFF5
:1011BE000C0D0A0B1E0203040500000000D00130C6
:1011CE00015D011D028E016C0180016E616E006970
:1011DE006E66006F76660064697374616E63652077
:1011EE003D200020566572746963616C20524F4138
:1011FE0044204841532050524F424C454D21000D42
:10120E000A0020486F72697A6F6E74616C20524FBB
:10121E004144204841532050524F424C454D2100ED
:00000001FF
