:100000000C945D000C9485000C9485000C94850084
:100010000C9485000C9485000C9485000C9485004C
:100020000C9485000C9485000C9485000C9485003C
:100030000C9485000C9485000C9485000C9485002C
:100040000C9436020C9485000C94A6020C94800249
:100050000C9485000C9485000C9485000C9485000C
:100060000C9485000C94850000000008000201003B
:100070000003040700000000000000000000000072
:10008000250028002B0000000000240027002A0083
:10009000040404040404040402020202020203032E
:1000A0000303030301020408102040800102040836
:1000B0001020010204081020E90311241FBECFEF15
:1000C000D8E0DEBFCDBF11E0A0E0B1E0E4E5F8E0AC
:1000D00002C005900D92A831B107D9F721E0A8E13F
:1000E000B1E001C01D92A13CB207E1F710E0CDE5FF
:1000F000D0E004C02197FE010E942204CC35D10734
:10010000C9F70E94D8020C9428040C94000090E0D7
:10011000FC01EC55FF4F249180579F4FFC018491C7
:10012000882399F090E0880F991FFC01EA57FF4F50
:10013000A591B491FC01E458FF4F859194918FB73C
:10014000F894EC91E22BEC938FBF089590E0FC01C2
:10015000E859FF4F2491FC01EC55FF4F3491FC010D
:10016000E057FF4FE491EE23C9F0222339F023300A
:1001700001F1A8F4213019F1223029F1F0E0EE0F5D
:10018000FF1FE458FF4FA591B4918FB7F894EC91FD
:10019000611126C030953E233C938FBF08952730D0
:1001A000A9F02830C9F0243049F7809180008F7D74
:1001B00003C0809180008F7780938000DFCF84B56B
:1001C0008F7784BDDBCF84B58F7DFBCF8091B0006E
:1001D0008F778093B000D2CF8091B0008F7DF9CF20
:1001E0003E2BDACFEF92FF920F931F93CF93DF93C3
:1001F00091E0E92E91E0F92ED0E0C0E0082F10E068
:10020000B8010C2E02C0759567950A94E2F76170EB
:10021000F70181917F010E94A6002196C430D1058B
:1002200079F781E0DF91CF911F910F91FF90EF90CF
:100230000895AF92BF92CF92DF92EF92FF920F9309
:100240001F93CF93DF936C017B018B01040F151F6C
:10025000EB015E01AE18BF08C017D10759F06991D4
:10026000D601ED91FC910190F081E02DC601099538
:10027000892B79F7C501DF91CF911F910F91FF90E5
:10028000EF90DF90CF90BF90AF900895FC01538D19
:10029000448D252F30E0842F90E0821B930B541760
:1002A00010F0CF96089501970895FC01918D828DED
:1002B000981761F0A28DAE0FBF2FB11D5D968C9186
:1002C000928D9F5F9F73928F90E008958FEF9FEFC5
:1002D0000895FC01918D828D981731F0828DE80F81
:1002E000F11D858D90E008958FEF9FEF0895FC013B
:1002F000918D228D892F90E0805C9F4F821B910908
:100300008F739927089588E191E00E94770121E099
:10031000892B09F420E0822F089580E090E0892B5A
:1003200029F00E94830181110C9400000895FC01C2
:10033000A48DA80FB92FB11DA35ABF4F2C91848D46
:1003400090E001968F739927848FA689B7892C93A3
:10035000A089B1898C91837080648C93938D848DF6
:10036000981306C00288F389E02D80818F7D8083F9
:100370000895EF92FF920F931F93CF93DF93EC01B9
:1003800081E0888F9B8D8C8D98131AC0E889F9893C
:10039000808185FF15C09FB7F894EE89FF8960833F
:1003A000E889F98980818370806480839FBF81E0C0
:1003B00090E0DF91CF911F910F91FF90EF90089502
:1003C000F62E0B8D10E00F5F1F4F0F731127E02EDD
:1003D0008C8D8E110CC00FB607FCFACFE889F98915
:1003E000808185FFF5CFCE010E949701F1CFEB8D83
:1003F000EC0FFD2FF11DE35AFF4FF0829FB7F894E9
:100400000B8FEA89FB8980818062CFCFCF93DF9306
:10041000EC01888D8823B9F0AA89BB89E889F9891C
:100420008C9185FD03C0808186FD0DC00FB607FC51
:10043000F7CF8C9185FFF2CF808185FFEDCFCE0184
:100440000E949701E9CFDF91CF910895CF93C82FF4
:1004500060E00E94A6008FE39FE10197F1F700C0E2
:10046000000061E08C2FCF910C94A6001F920F9298
:100470000FB60F9211242F933F938F939F93AF93B7
:10048000BF938091BD019091BE01A091BF01B09139
:10049000C0013091BC0123E0230F2D3758F50196A0
:1004A000A11DB11D2093BC018093BD019093BE019D
:1004B000A093BF01B093C0018091B8019091B901A0
:1004C000A091BA01B091BB010196A11DB11D80930D
:1004D000B8019093B901A093BA01B093BB01BF9149
:1004E000AF919F918F913F912F910F900FBE0F90E1
:1004F0001F90189526E8230F0296A11DB11DD2CF9B
:100500001F920F920FB60F9211242F933F934F9388
:100510005F936F937F938F939F93AF93BF93EF936B
:10052000FF9388E191E00E949701FF91EF91BF91C5
:10053000AF919F918F917F916F915F914F913F917B
:100540002F910F900FBE0F901F9018951F920F9232
:100550000FB60F9211242F938F939F93EF93FF93D6
:10056000E0912801F09129018081E0912E01F09124
:100570002F0182FD1BC09081809131018F5F8F73AD
:1005800020913201821741F0E0913101F0E0E85E04
:10059000FE4F958F80933101FF91EF919F918F9145
:1005A0002F910F900FBE0F901F9018958081F4CF60
:1005B000789484B5826084BD84B5816084BD85B53E
:1005C000826085BD85B5816085BD80916E0081604A
:1005D00080936E00109281008091810082608093F0
:1005E00081008091810081608093810080918000F2
:1005F0008160809380008091B10084608093B1001D
:100600008091B00081608093B00080917A00846016
:1006100080937A0080917A00826080937A00809142
:100620007A00816080937A0080917A00806880935C
:100630007A001092C10086E00E94870087E00E9445
:10064000870088E00E94870089E00E948700C1E05F
:10065000D1E089910E948700FE01319760E080819E
:100660000E94A60081E0C530D80799F761E086E0D6
:100670000E94A60061E087E00E94A60061E088E099
:100680000E94A60061E089E00E94A600E091280196
:10069000F091290182E08083E0912401F09125010D
:1006A0001082E0912601F09127018FEC8083109257
:1006B0003001E0912C01F0912D0186E08083E091E2
:1006C0002A01F0912B01808180618083E0912A01D1
:1006D000F0912B01808188608083E0912A01F09164
:1006E0002B01808180688083E0912A01F0912B01A9
:1006F00080818F7D8083CAE000E010E0D1E08091AE
:1007000000016C2F0E941604892F0E94F20087E0DE
:100710000E942602809100016C2F0E9416040E9404
:10072000F20086E00E9426028091B7016C2F0E94A1
:100730001604892F0E94F20089E00E94260280910F
:10074000B7016C2F0E9416040E94F20088E00E94FC
:1007500026028091B6018D3731F51092B601809155
:10076000B601811114C08091B501811106C080913C
:10077000000181111CC0D093B5018091B50188237F
:1007800031F08091B70181111BC01092B5010115A4
:10079000110509F4B4CF0E948301882309F4AFCF77
:1007A0000E940000ACCF8F5F8093B601D8CF8150FC
:1007B000809300018091B7018F5F8093B701DDCFF7
:1007C00081508093B701809100018F5F8093000179
:1007D000DECFE8E1F1E01382128288EE93E0A0E040
:1007E000B0E084839583A683B78389E091E0918309
:1007F000808385EC90E09587848784EC90E09787F0
:10080000868780EC90E0918B808B81EC90E0938BDD
:10081000828B82EC90E0958B848B86EC90E0978BBA
:10082000868B118E128E138E148E0895991B79E08B
:1008300004C0991F961708F0961B881F7A95C9F770
:1008400080950895EE0FFF1F0590F491E02D099417
:04085000F894FFCF4A
:100854001E0203040500000000B901190146010647
:08086400027701550169010052
:00000001FF
